:020000040800F2
:10000000E85F00203D090008810100088301000825
:10001000870100088B0100088F0100080000000024
:100020000000000000000000000000009301000834
:1000300095010008000000009701000899010008E0
:100040005709000857090008570900085709000810
:100050005709000857090008570900085709000800
:1000600057090008570900085709000857090008F0
:1000700057090008570900085709000857090008E0
:1000800057090008570900085709000857090008D0
:1000900057090008570900085709000857090008C0
:1000A00057090008570900085709000857090008B0
:1000B00057090008F7040008570900085709000805
:1000C0005709000857090008570900085709000890
:1000D000570900084108000857090008F5070008FB
:1000E0005709000857090008570900085709000870
:1000F0005709000857090008570900085709000860
:10010000570900085709000857090008570900084F
:10011000570900085709000857090008570900083F
:10012000570900085709000857090008570900082F
:10013000DFF80CD003F0FEFD004800474501000841
:10014000E85F00204FF4A06001F08EF900F02AFA79
:1001500000F014F94FF4E13000F0E7FA05214FF414
:10016000E13003F049F803A004F0BCF801E002F02C
:1001700095FCFCE773746172742E2E2E0D0A00003C
:10018000704700BFFEE700BFFEE700BFFEE700BF0D
:10019000FEE7704770477047704700000CB50020BD
:1001A000019000906C48006840F480306A49086013
:1001B00000BF6948006800F4003000900198401CBE
:1001C0000190009818B90198B0F5A06FF1D162487C
:1001D000006800F4003010B10120009001E0002020
:1001E00000900098012843D15C48006840F010005E
:1001F0005A4908600846006820F003000860084675
:10020000006840F002000860534840685249486066
:100210000846406848600846406840F4806048608E
:100220000846406820F47C1048600846406840F466
:10023000E81048600846006840F08070086000BF21
:100240004548006800F000700028F9D04248406836
:1002500020F00300404948600846406840F0020032
:10026000486000BF3C48406800F00C000828F9D105
:100270000CBD10B5FFF792FF10BD10B536480068F1
:1002800040F001003449086008464068344908409D
:100290003149486008460068324908402E490860E4
:1002A0000846006820F4802008600846406820F472
:1002B000FE0048604FF41F008860FFF7DAFF4FF040
:1002C00000602949086010BD10B5002100200022FF
:1002D000214B5B6803F00C0121B1042906D00829E9
:1002E00028D107E0214B224C236027E01F4B204CF4
:1002F000236023E0184B5B6803F47010164B5B68B7
:1003000003F48032022303EB904022B9194B43439C
:10031000174C23600DE0104B5B6803F4003323B1EE
:10032000144B4343124C236003E0104B4343104CE7
:10033000236003E00D4B0E4C236000BF00BF064B53
:100340005B68C3F303130C4CE15C094B1B68CB40A7
:10035000074C236010BD0000001002400020024046
:100360000000FFF8FFFFF6FE08ED00E000127A0043
:100370000000002000093D000400002008B5012114
:10038000242000F009FE4FF48070ADF8000010202A
:100390008DF8030003208DF802006946094800F03B
:1003A0003FFB4FF48071074800F0E7FB0420ADF8F5
:1003B00000006946044800F033FB0421024800F0C5
:1003C000DCFB08BD00080140001401407FB5054674
:1003D0000C460121022000F0ECFDADF80850ADF80C
:1003E00004400020ADF80A00ADF8060001A9484815
:1003F00001F07CF901221146454801F0EEFC1D2078
:100400008DF8000000208DF8010003208DF8020017
:1004100001208DF80300684601F02BF801213C48CB
:1004200001F0C0FC7FBD70B500243A480078F0B9F7
:1004300039480088D8B100BF08E036480078204429
:100440003649085C36490855601C84B23548007846
:10045000844203DA304800888442EEDB2D4800787D
:1004600020442C49087021462F4800F086F84FF4AC
:10047000005002F05DF800283BD04FF4005002F02D
:100480006BF82448007824490988884205D1002067
:10049000214908801F49087070BD1F48008800B9B5
:1004A000FAE7204805781B4800781E490978084477
:1004B00019490988884205DD1748007815490978E7
:1004C000401AC5B2002408E01248007820441349BD
:1004D000085C13490855601C84B2AC42F4DB0D483B
:1004E000007828440B49087029460F4800F045F869
:1004F00000BF00BFD0E710B50121054801F01BFF88
:1005000028B1FFF790FF0121014801F025FF10BD40
:10051000000400401400002048000020E40A0020ED
:10052000D0080020246D0008440002402DE9F0416D
:1005300007460C4615461E460121084600F01FFDE1
:10054000384601F00DFF154804604560102013493E
:1005500088600846C660002008618020486100204D
:100560008861C86108624FF4805048620020886248
:10057000384601F097FFBDE8F08170B504460D469E
:100580000021204601F0B9FF2946054801F0CAFFC5
:100590000121204601F0B1FF70BD00008400002061
:1005A0004400024010B56FF0040000F0ACFF2E488C
:1005B00000682E49B0FBF1F02D490870084600781C
:1005C00000EB4001C1EBC0104FF6FF7101EAC00023
:1005D0002849088010BD0146254A12784A434FF049
:1005E000E0235A6100229A611A46126942F0010220
:1005F0001A6100BF4FF0E022106900F001021AB149
:1006000000F48032002AF5D04FF0E022126922F087
:1006100001024FF0E0231A6100229A6170470146FF
:10062000144A12884A434FF0E0235A6100229A612B
:100630001A46126942F001021A6100BF4FF0E0222F
:10064000106900F001021AB100F48032002AF5D0DE
:100650004FF0E022126922F001024FF0E0231A610C
:1006600000229A61704700000000002000127A000A
:10067000160000201800002000BFA94A128802F0CE
:100680004002002AF9D0C2B2A54B1B1D1A80704748
:1006900010B586B00446012144F2040000F07CFC51
:1006A0004FF40070ADF8140003208DF816001820E8
:1006B0008DF8170005A99B4800F0B2F94FF480604F
:1006C000ADF8140004208DF8170005A9954800F036
:1006D000A7F925208DF8000003208DF801000220E5
:1006E0008DF8020001208DF80300684600F0C1FE7D
:1006F00001940020ADF80800ADF80A00ADF80C0038
:10070000ADF810000C20ADF80E0001A9864800F0ED
:10071000EAFC012240F22551834800F07CFD0121D2
:10072000814800F06CFD06B010BD10B586B00446DF
:100730000121082000F030FC0121880400F039FC80
:100740004FF48060ADF8140003208DF816001820D7
:100750008DF8170005A9754800F062F94FF40060A4
:10076000ADF8140004208DF8170005A96F4800F0BB
:1007700057F927208DF8000003208DF801008DF82F
:10078000020001208DF80300684600F072FE01941B
:100790000020ADF80800ADF80A00ADF80C00ADF887
:1007A00010000C20ADF80E0001A95D4800F09BFC84
:1007B000012240F225515A4800F02DFD01215848F0
:1007C00000F01DFD06B010BD00BF5549098801F0BD
:1007D00040010029F9D05249091D0880704700B531
:1007E000024603E012F8010BFFF7EEFF1078002835
:1007F000F8D100BD10B540F22551494800F0F0FD98
:1008000038B1474800F06CFDC4B2214648A003F05F
:1008100069FD10BD00BF4449098801F0400100296D
:10082000F9D04149091D0880704700B5024603E030
:1008300012F8010BFFF7EEFF10780028F8D100BD89
:1008400010B540F22551384800F0CAFD002866D0A6
:10085000354800F045FDC4B23648008800F4004039
:1008600040B30A2C1BD133480088C0F30E00002887
:1008700015DD3148D0F804082E490988C1F30E016E
:1008800008442D49C1F8040800212B48D0F8040879
:10089000401C294AC2F80408C0F30A001154002081
:1008A000244908800D2C3AD10846008840F40040C5
:1008B000088034E00D2C06D11E48008840F400402A
:1008C0001C4908802BE01B480088401C19490880FF
:1008D0001948D0F8040810F5807F16D91648D0F8CA
:1008E00000081549B1F80018C1F30A01401A12496D
:1008F000D1F80418081A1049C1F804080846B0F8DD
:100900000008C0F30A00C1F800080B48B0F804085A
:10091000084909880844C0F30A0007490C5410BD6F
:10092000004800400008014000380140000C014030
:10093000256300001A000020B00000200648804710
:1009400006480047FEE7FEE7FEE7FEE7FEE7FEE7B4
:10095000FEE7FEE7FEE7FEE77B0200083101000844
:1009600010B50446CC48844208D10121042000F08F
:100970002DFB0021042000F029FB46E0C7488442FB
:1009800008D10121082000F021FB0021082000F0FF
:100990001DFB3AE0C248844208D10121102000F03A
:1009A00015FB0021102000F011FB2EE0BD48844211
:1009B00008D10121202000F009FB0021202000F0B7
:1009C00005FB22E0B848844208D10121402000F014
:1009D000FDFA0021402000F0F9FA16E0B348844205
:1009E00008D10121802000F0F1FA0021802000F0E0
:1009F000EDFA0AE0AE48844207D10121801500F0EB
:100A0000E5FA0021A01500F0E1FA10BD10B50121B2
:100A1000084600F0DBFA0021012000F0D7FA10BDF3
:100A20002DE9F04102460025002600200023002485
:100A3000002791F803C00CF00F0591F803C00CF0EB
:100A4000100CBCF1000F03D091F802C04CEA050570
:100A500091F800C0BCF1000F31D0146800202BE0E9
:100A60004FF0010C0CFA00F3B1F800C00CEA0306D9
:100A70009E4220D183004FF00F0C0CFA03F7BC43C9
:100A800005FA03FC4CEA040491F803C0BCF1280FFA
:100A900006D14FF0010C0CFA00FCC2F814C00AE0B9
:100AA00091F803C0BCF1480F05D14FF0010C0CFACE
:100AB00000FCC2F810C0401C0828D1D31460B1F863
:100AC00000C0BCF1FF0F34DD546800202EE000F1BF
:100AD000080C4FF0010808FA0CF3B1F800C00CEA5A
:100AE00003069E4221D183004FF00F0C0CFA03F74E
:100AF000BC4305FA03FC4CEA040491F803C0BCF1C2
:100B0000280F05D100F1080C08FA0CF8C2F814807F
:100B100091F803C0BCF1480F07D100F1080C4FF069
:100B2000010808FA0CF8C2F81080401C0828CED33F
:100B30005460BDE8F0814FF6FF71018002218170A1
:100B40000421C17070470246002093680B400BB12E
:100B5000012000E0002070470146886880B270479D
:100B600002460020D3680B400BB1012000E00020BA
:100B700070470146C86880B27047016170474161A3
:100B800070470AB1016100E041617047C160704780
:100B90004FF480320A438261816182618269826995
:100BA000704702460020434B18684FF68073184088
:100BB00040EA021008433F4B186070473E49C86145
:100BC0007047F0B50A46002300240021002500F0FC
:100BD0000046B6F1004F02D1364EF16901E0354EC4
:100BE0007168C0F3034583B200F44016B6F5401FA8
:100BF00008D121F070612F4E766826F070662D4F77
:100C00007E6012E000F48016B6F5801F06D1032640
:100C100006FA05F4A14341F0706106E0460D360185
:100C200003FA06F6B14341F0706122B1460D360178
:100C300003FA06F6314300F00046B6F1004F02D148
:100C40001C4EF16101E01B4E7160F0BD30B5002219
:100C50008B071C0F0F2303FA04F2164B08338C107A
:100C600053F824309343134C08348D1044F8253046
:100C700023468C1053F824308C07240F00FA04F418
:100C800023430C4C08348D1044F8253030BD0A49FC
:100C9000DC3108607047000000080140000C014092
:100CA000001001400014014000180140001C0140E8
:100CB000002001400000014000002042DF480068A1
:100CC00040F00100DD49086008464068DC49084002
:100CD000DA49486008460068DA490840D7490860A0
:100CE0000846006820F4802008600846406820F428
:100CF000FE0048604FF41F0088607047CF490968C4
:100D000021F48031CD4A11601146096821F4802117
:100D10001160B0F5803F03D0B0F5802F0ED106E012
:100D2000C649096841F48031C44A116007E0C349EB
:100D3000096841F4A021C14A116000E000BF00BF72
:100D4000704710B501460022002300204A11012AF5
:100D500002D1BA4C236806E0022A02D1B74C236ABA
:100D600001E0B64C636A01F01F02012494401C406C
:100D70000CB1012000E0002010BD38B5002000902B
:100D80000024002500BF3120FFF7DBFF0546009857
:100D9000401C00900098B0F5A06F01D0002DF2D05B
:100DA0003120FFF7CEFF08B1012400E000242046E7
:100DB00038BD01460020A14A106820F0F80040EA42
:100DC000C10010607047A0490860704702460020CB
:100DD0009A4B586820F47C1042EA01031843974B61
:100DE0005860704798490866704701460020934A4A
:100DF000506820F003000843506070478F484068F7
:100E000000F00C007047014600208C4A506820F02A
:100E1000F00008435060704701460020874A506840
:100E200020F4E06008435060704701460020834A88
:100E3000506820F4605040EAC1005060704729B10A
:100E40007E4A527A02437D4B5A7204E07B4A527AC0
:100E500082437A4B5A7270477B49D8310860704799
:100E600001460020754A506820F440400843506015
:100E700070470021714A20321170704A82F82010A8
:100E8000012802D004280AD104E001216B4A203253
:100E9000117005E00521694A2032117000E000BFA1
:100EA00000BF70476949086070476449096A014397
:100EB000624A11627047654944390860704730B52D
:100EC00000210022002400235C4D6D6805F00C0118
:100ED00021B1042905D0082923D105E05C4D056026
:100EE00022E05B4D05601FE0544D6D6805F4701203
:100EF000524D6D6805F48034022505EB92421CB911
:100F0000544D554305600BE04C4D6D6805F40035BC
:100F10001DB1504D5543056002E04D4D55430560F0
:100F200002E04B4D056000BF00BF444D6D6805F009
:100F3000F0010909484D6B5C0568DD4045603F4D97
:100F40006D6805F4E061090A434D6B5C4568DD405E
:100F500085603A4D6D6805F46051C90A3E4D6B5C81
:100F60004568DD40C560354D6D6805F44041890B2D
:100F70003A4D6B5CC568B5FBF3F5056130BD29B131
:100F80002E4A526902432D4B5A6104E02B4A5269A2
:100F900082432A4B5A61704729B1284A9269024319
:100FA000264B9A6104E0254A92698243234B9A6159
:100FB000704729B1214AD2690243204BDA6104E02B
:100FC0001E4AD26982431D4BDA61704729B11B4A20
:100FD000D2680243194BDA6004E0184AD2688243AF
:100FE000164BDA60704729B1144A12690243134B59
:100FF0001A6104E0114A12698243104B1A6170476A
:1010000012494039086070470F49C86470470B495E
:10101000C87170470948406A40F0807007494862CB
:10102000704701460020054A92680A400AB1012033
:1010300000E00020704701498872704700100240AC
:101040000000FFF8FFFFF6FE00004242800442422B
:1010500000127A0000093D001C0000202C00002036
:1010600010B50446FB48844209D101218803FFF7EB
:10107000ADFF00214FF48040FFF7A8FF32E0F648B3
:10108000844209D101214804FFF7ADFF00214FF44C
:101090000030FFF7A8FF25E0F048844209D1012184
:1010A0008804FFF7A0FF00214FF48020FFF79BFF8B
:1010B00018E0EB48844209D10121C804FFF793FFEF
:1010C00000214FF40020FFF78EFF0BE0E54884423B
:1010D00008D101210805FFF786FF00214FF4801099
:1010E000FFF781FF10BD2DE9F04786B005460E469B
:1010F0000024A24600BFA1460027B08900B100BF6E
:101100002F462C8A4CF6FF700440F08804432C8252
:10111000AC894EF6F3100440B088318908437189D8
:1011200008430443AC81AC8A4FF6FF400440B089C9
:101130000443AC8201A8FFF7C2FEC648874202D131
:10114000DDF810A001E0DDF80CA0A88900F4004053
:1011500040B10AEBCA0000EB0A1031684900B0FB4D
:10116000F1F807E00AEBCA0000EB0A1031688900C9
:10117000B0FBF1F86420B8FBF0F004012009642111
:1011800001FB1089A88900F4004040B1322000EB37
:10119000C900B0FBF1F000F00700044308E0322082
:1011A00000EB09106421B0FBF1F000F00F000443E4
:1011B0002C8106B0BDE8F0874FF416510160002184
:1011C0008180C18001810C21418100218181704792
:1011D00010B502460020108A4FF2FF0318400B881A
:1011E0004C8823438C882343CC88234318431082A4
:1011F00010BD0021018041808180C180704721B1F4
:10120000828942F40052828104E082894DF6FF73A4
:101210001A4082817047F0B503460024002600255D
:10122000002040F66A17B94200D100BF1846C1F34A
:10123000421401F01F06012707FA06F5012C01D11F
:101240000C3004E0022C01D1103000E014301AB14F
:1012500007682F43076002E00768AF430760F0BDEF
:101260001AB1838A0B43838202E0838A8B43838291
:101270007047028A4FF6F0731A400282028A0A43CC
:101280000282704782894FF2FF731A4082818289FD
:101290000A438281704721B1828942F00202828131
:1012A00004E082894FF6FD731A4082817047028AFA
:1012B0004FF6DF731A400282028A0A4302827047A5
:1012C00021B1028A42F48042028204E0028A4BF693
:1012D000FF731A4002827047C1F308028280704790
:1012E00001468888C0F308007047818941F00101F8
:1012F00081817047028BD2B20283028B42EA0122C3
:1013000002837047028B02F47F420283028B0A43FE
:101310000283704721B1828A42F02002828204E077
:10132000828A4FF6DF731A408282704721B1828A27
:1013300042F01002828204E0828A4FF6EF731A4074
:101340008282704721B1828A42F00802828204E0E0
:10135000828A4FF6F7731A408282704721B18289E0
:1013600042F40042828103E08289C2F30E0282814C
:10137000704721B1828A42F40062828204E0828A4C
:101380004FF2FF731A4082827047828A4FF6FB73D6
:101390001A408282828A0A438282704721B1828AFD
:1013A00042F00202828204E0828A4FF6FD731A4004
:1013B0008282704702460020B1F5007F00D100BF55
:1013C00013880B400BB1012000E00020704701F4AE
:1013D0000072B2F5007F00D100BFCA43028070479F
:1013E00070B50246002400230025002040F66A164E
:1013F000B14200D100BFC1F3421501F01F03012625
:1014000006FA03F3012D02D19689334006E0022D3E
:1014100002D1168A334001E0968A33400C1201262D
:1014200006FA04F41688344013B10CB1012000E030
:10143000002070BD10B50022002340F66A14A142BE
:1014400000D100BF0A1201249440A3B2DC430480FF
:1014500010BD00000038014000440040004800403A
:10146000004C00400050004031490143314A1160B6
:10147000704770B5002100230F22C47804B32D4CAF
:10148000246804F4E064C4F5E064210AC1F10403B3
:10149000CA40447804FA03F18478144021430901D6
:1014A000254C0678A155047804F01F050124AC40B2
:1014B00005786D11AD0005F1E025C5F8004109E0A2
:1014C000047804F01F050124AC401C4D0678761109
:1014D00045F8264070BD1A4A0A400243154B1B1FAF
:1014E0001A60704739B1134A121D12680243114B3A
:1014F0001B1D1A6006E00F4A121D126882430D4B35
:101500001B1D1A607047042808D14FF0E0210969BB
:1015100041F004014FF0E022116107E04FF0E021BB
:10152000096921F004014FF0E022116170470000C9
:101530000000FA050CED00E000E400E080E100E0CE
:1015400080FFFF1F10B50446FE48844208D10121E8
:10155000C014FFF73BFD0021E014FFF737FDC4E0A6
:10156000B4F1804F08D101210846FFF73CFD00216E
:101570000120FFF738FDB8E0F348844208D101218B
:101580000220FFF730FD00210220FFF72CFDACE028
:10159000EE48844208D101210420FFF724FD0021F8
:1015A0000420FFF720FDA0E0E948844208D1012192
:1015B0000820FFF718FD00210820FFF714FD94E034
:1015C000E448844208D101211020FFF70CFD0021DE
:1015D0001020FFF708FD88E0DF48844208D1012190
:1015E0002020FFF700FD00212020FFF7FCFC7CE01D
:1015F000DA48844208D101214014FFF7E7FC0021BA
:101600006014FFF7E3FC70E0D548844209D1012162
:10161000C804FFF7DBFC00214FF40020FFF7D6FCE5
:1016200063E0D048844209D101210805FFF7CEFCD0
:1016300000214FF48010FFF7C9FC56E0CA488442ED
:1016400009D101214805FFF7C1FC00214FF400102A
:10165000FFF7BCFC49E0C548844208D10121402085
:10166000FFF7C1FC00214020FFF7BDFC3DE0C04872
:10167000844208D101218020FFF7B5FC00218020A1
:10168000FFF7B1FC31E0BB48844208D1012180154D
:10169000FFF7A9FC0021A015FFF7A5FC25E0B6483F
:1016A000844209D101210804FFF790FC00214FF486
:1016B0008030FFF78BFC18E0B048844209D101214B
:1016C0004804FFF783FC00214FF40030FFF77EFC55
:1016D0000BE0AB48844208D101218804FFF776FC77
:1016E00000214FF48020FFF771FC10BD002202881A
:1016F000944B98420ED0994B98420BD0B0F1804F4A
:1017000008D0914B984205D0904B984202D0904B14
:10171000984204D14FF68F731A404B881A438D4B71
:10172000984207D08C4B984204D04FF6FF431A40A2
:10173000CB881A4302808B8883850B880385814B75
:1017400098420BD0854B984208D08B4B984205D0DD
:101750008A4B984202D08A4B984201D10B7A038679
:1017600001238382704770B5002400220023058C7A
:101770004FF6FE7635400584028C8388048B4FF645
:101780008F752C40B51E2C400D882C43751E2A40A9
:101790000D892A434D882A436A4DA8420BD06F4DCC
:1017A000A84208D0744DA84205D0744DA84202D07A
:1017B000734DA84213D14FF6F7752A404D892A433D
:1017C0004FF6FB752A408D882A434FF6FF652B4064
:1017D0004FF6FF552B408D892B43CD892B438380BA
:1017E0000483CD888586028470BD70B500240022F4
:1017F0000023058C4FF6EF7635400584028C8388F4
:10180000048B48F6FF752C404FF6FF452C400D88A1
:101810004FF6FF7606EA05252C434FF6DF752A4082
:101820000D8906EA05152A434D8806EA05152A435F
:10183000444DA84202D0494DA8421DD14FF67F75B4
:101840002A404D894FF6FF7606EA05152A434FF6E2
:10185000BF752A408D8806EA05152A434FF6FF35E5
:101860002B404FF2FF752B408D8906EA85052B43EF
:10187000CD8906EA85052B4383800483CD880587BF
:10188000028470BD70B5002400220023058C4FF641
:10189000FF6635400584028C8388848B4FF68F75F4
:1018A0002C404FF6FC752C400D882C434FF6FF550D
:1018B0002A400D894FF6FF7606EA05252A434D8812
:1018C00006EA05252A431F4DA84202D0234DA8420F
:1018D0001DD14FF2FF752A404D894FF6FF7606EA7B
:1018E00005252A434FF6FF352A408D8806EA05254F
:1018F0002A434EF6FF752B404DF6FF752B408D8920
:1019000006EA05152B43CD8906EA05152B4383808E
:101910008483CD888587028470BD70B50022002342
:101920000024058C4EF6FF7635400584038C8488B0
:10193000828B48F6FF752A404FF6FF452A400D88F6
:1019400020E00000002C014000040040000800409E
:10195000000C004000100040001400400034014022
:10196000004C01400050014000540140001800406C
:10197000001C0040002000400040014000440140A5
:10198000004801404FF6FF7606EA05252A434DF64A
:10199000FF752B400D8906EA05352B434D8806EA75
:1019A00005352B43FA4DA84202D0FA4DA84208D182
:1019B0004BF6FF752C408D894FF6FF7606EA8515AC
:1019C0002C4384808283CD88A0F84050038470BD6E
:1019D000828B4FF2FF331A408283828B4FF6FF7364
:1019E00003EA01231A4382837047F0B50C4615467B
:1019F000002200210026078C4EF6FF7C07EA0C0728
:101A00000784828B018C4FF6FF7707EA043640F695
:101A1000FF473A404FF6FF7707EA05273A434FF66C
:101A2000FF7707EA03373A43D94FB8420ED0D94F70
:101A3000B8420BD0B0F1804F08D0D74FB84205D094
:101A4000D64FB84202D0D64FB84206D14DF6FF77F6
:101A5000394046F48057394305E047F6FF5739408F
:101A600044F48057394382830184F0BD828B4FF662
:101A7000F3731A408283828B0A4382837047F0B5E6
:101A80000C461546002200210026078C4FF6FF6CFD
:101A900007EA0C070784828B018C4FF6FF7707EA71
:101AA00004264FF60C773A404FF6FF7707EA031704
:101AB0002F433A43B64FB8420ED0B64FB8420BD080
:101AC000B0F1804F08D0B44FB84205D0B34FB84200
:101AD00002D0B34FB84206D14FF6FF57394046F413
:101AE0008077394305E04FF2FF57394044F480775F
:101AF000394382830184F0BD028B4FF2FF331A40D9
:101B00000283028B4FF6FF7303EA01231A43028319
:101B10007047F0B50C461546002200210026078CC0
:101B20004FF6EF7C07EA0C070784028B018C4FF617
:101B3000FF7707EA041640F6FF473A404FF6FF7773
:101B400007EA03373A434FF6FF7707EA05273A4398
:101B50008F4FB8420ED08F4FB8420BD0B0F1804FAC
:101B600008D08D4FB84205D08C4FB84202D08C4F70
:101B7000B84206D14FF6DF77394046F010073943B7
:101B800005E04FF65F77394044F010073943028390
:101B90000184F0BD028B4FF6F3731A400283028B6F
:101BA0000A4302837047F0B50C4615460022002117
:101BB000068C4FF6FE773E400684028B018C4FF672
:101BC0000C7632407E1C06EA03162E433243704EDA
:101BD000B0420ED06F4EB0420BD0B0F1804F08D063
:101BE0006D4EB04205D06D4EB04202D06C4EB04248
:101BF00006D14FF6FD76314044F00106314305E051
:101C00004FF6F576314044F00106314302830184FA
:101C1000F0BD70B505460C465D4885420ED05D4866
:101C200085420BD0B5F1804F08D05B48854205D086
:101C30005A48854202D05A48854200D100E000BF90
:101C4000208850B92389A28861882846FFF7ABFF16
:101C5000E1882846FFF79EFF25E0208804280AD166
:101C60002389A28861882846FFF753FFE188284628
:101C7000FFF742FF17E0208808280AD12389A288AD
:101C800061882846FFF7FBFEE1882846FFF7EEFE55
:101C900009E02389A28861882846FFF7A6FEE1882B
:101CA0002846FFF795FE70BD2DE9F04105460C462C
:101CB00000260127608808B9022600E00026A088D7
:101CC000012801D1022700E001272088A0B923893B
:101CD000A28861882846FFF766FFE1882846FFF75B
:101CE00059FF23893A4631462846FFF712FFE1881B
:101CF0002846FFF701FF13E02389A2886188284660
:101D0000FFF707FFE1882846FFF7F6FE23893A46EA
:101D100031462846FFF747FFE1882846FFF73AFF9C
:101D2000BDE8F0810A884B881A438B881A43CB8818
:101D30001A430B891A434B891A438B891A43A0F81B
:101D4000442070474FF6FF71818000210180C180DF
:101D50004180017270470021018041808180C180F3
:101D6000018141818181C1817047002101804180D1
:101D7000012181800021C180018170470021018003
:101D800041808180C1800181418181817047000053
:101D9000002C0140003401400004004000080040D5
:101DA000000C004021B1028842F00102028004E0F0
:101DB00002884FF6FE731A400280704731B1B0F8C6
:101DC000442042F40042A0F8442005E0B0F844204A
:101DD000C2F30E02A0F8442070471AB183890B4366
:101DE000838102E083898B438381704781827047BE
:101DF00041EA0203A0F8483070471AB183890B43C7
:101E0000838102E083898B438381704701894FF688
:101E1000F8721140018170470A46002101894FF68E
:101E20008F73194011430181704730B504460D4648
:101E300029462046FFF7F0FF208940F00700208167
:101E400030BD2DE9F04104460D4616461F46602D73
:101E500006D13B46012231462046FFF75AFE05E0F7
:101E60003B46012231462046FFF79DFE294620468B
:101E7000FFF7D2FF208940F007002081BDE8F08104
:101E800030B50C4600210189C9B24FF6FF7505EA4D
:101E90000325154325432943018130BD2DE9F04138
:101EA00005460E4617469846002443463A463146B4
:101EB0002846FFF7E5FF2C894FF6F870044044F000
:101EC00007044FF68F70044044F070042C81BDE885
:101ED000F081F0B504460D4616461F463B46324695
:101EE00029462046FFF7CCFF208940F4804020811E
:101EF000F0BD0185828270470A46002101884FF6B5
:101F00008F731940114301807047F0B50C46154698
:101F10001E460021002200230189028B038C4FF60C
:101F2000F877394021434FF6FC473A4040F2011719
:101F30003A434FF6DD773B404FF6FF7707EA061747
:101F40002F433B43018102830384F0BD0A460021F5
:101F5000018B4FF68F7319401143018370470A4676
:101F60000021018B48F6FF7319404FF6FF7303EA17
:101F700002231943018370470A460021818B4FF6E3
:101F80008F7319401143818370470A460021818B6A
:101F900048F6FF7319404FF6FF7303EA0223194313
:101FA0008183704721B1028842F08002028004E000
:101FB00002884FF67F731A400280704721B18288F1
:101FC00042F00402828004E082884FF6FB731A40DC
:101FD0008280704721B1828842F00802828004E04A
:101FE00082884FF6F7731A408280704721B1828849
:101FF00042F00102828004E082884FF6FE731A40AC
:10200000828070470A460021018B4FF6F773194012
:102010001143018370470A460021018B4FF2FF7381
:1020200019404FF6FF7303EA0223194301837047F7
:102030000A460021818B4FF6F773194011438183C3
:1020400070470A460021818B4FF2FF7319404FF60B
:10205000FF7303EA02231943818370470A46002174
:10206000018B4FF6FB7319401143018370470A46F9
:102070000021018B4FF6FF3319404FF6FF7303EA3F
:1020800002231943018370470A460021818B4FF6D2
:10209000FB7319401143818370470A460021818BED
:1020A0004FF6FF3319404FF6FF7303EA022319433B
:1020B000818370470A460021018B4FF67F731940D8
:1020C0001143018370470A460021018BC1F30E01C1
:1020D0004FF6FF7303EA02231943018370470A4650
:1020E0000021818B4FF67F73194011438183704724
:1020F0000A460021818BC1F30E014FF6FF7303EAFC
:1021000002231943818370470A460021018C4FF650
:10211000FD7319401143018470470A460021018C68
:102120004FF6F77319401143018470470A460021A6
:10213000018C4FF6DF7319404FF6FF7303EA021369
:102140001943018470470A460021018C4FF67F73C2
:1021500019404FF6FF7303EA0213194301847047D5
:102160000A460021018C4FF6FF5319404FF6FF73CA
:1021700003EA02231943018470470A460021018CB7
:102180004FF2FF7319404FF6FF7303EA022319431E
:10219000018470470A460021018C4DF6FF731940F7
:1021A0004FF6FF7303EA023319430184704730B5D9
:1021B000002301248C40A3B2048C9C430484048C2F
:1021C00002FA01F5ADB22C43048430BD30B50023D2
:1021D00004248C40A3B2048C9C430484048C02FA33
:1021E00001F5ADB22C43048430BD70B50346002028
:1021F00000241846183001258D40ACB21D8CA54333
:102200001D8409B1082909D100EB6100056825F09A
:10221000700505600568154305600EE00D1FC5F3E8
:102220004E052844056825F4E045056005684FF62D
:10223000FF7606EA02263543056070BD21B10288AB
:1022400042F00202028004E002884FF6FD731A4059
:102250000280704721B1028842F00402028004E04B
:1022600002884FF6FB731A400280704721B18288C2
:1022700042F08002828004E082884FF67F731A4029
:102280008280704702884FF6F7731A4002800288F6
:102290000A430280704782884FF68F731A4082800B
:1022A00082880A438280704702894FF6F8731A4089
:1022B000028102890A430281704702894FF67F73C7
:1022C0001A40028102890A43028170478184704763
:1022D0008185704781867047018770478187704785
:1022E000A0F84010704702884FF6FF431A40028062
:1022F00002880A43028070470146888E7047014673
:10230000088F70470146888F70470146B1F840003A
:1023100070470146888C70470146088D7047024619
:102320000020138A0B400BB1012000E00020704711
:10233000CA430282704730B50246002000230024C1
:10234000158A05EA0103958905EA010413B10CB168
:10235000012000E0002030BDCA4302827047000027
:1023600001684FF6FE72114001600021016041607A
:102370008160C1608D49884208D18C49083949681B
:1023800041F00F01894A083A51608AE087491431C7
:10239000884208D185490839496841F0F001834AEB
:1023A000083A51607DE081492831884208D17F494F
:1023B0000839496841F470617C4A083A516070E01C
:1023C0007A493C31884208D178490839496841F452
:1023D0007041764A083A516063E07449503188424E
:1023E00008D172490839496841F470216F4A083AA6
:1023F000516056E06D496431884208D16B49083913
:10240000496841F47001694A083A516049E06749F6
:102410007831884208D165490839496841F07061CE
:10242000624A083A51603CE06149884206D1011F86
:10243000096841F00F01021F116032E05C4914315C
:10244000884208D15A49091F096841F0F001584AE9
:10245000121F116025E056492831884208D154499D
:10246000091F096841F47061514A121F116018E098
:102470004F493C31884208D14D49091F096841F450
:1024800070414B4A121F11600BE04949503188429C
:1024900007D14749091F096841F47021444A121FB6
:1024A0001160704710B50022026847F6F0739A4336
:1024B0000C6A8B6823430C6923434C6923438C6962
:1024C0002343CC6923434C6A23438C6A23431A4336
:1024D0000260CB6843600B6883604B68C36010BDCB
:1024E0000021016041608160C160016141618161E1
:1024F000C161016241628162704721B1026842F0AC
:102500000102026004E002684FF6FE731A400260A6
:1025100070471AB103680B43036002E003688B4302
:1025200003607047416070470146486880B2704759
:1025300001460020002201F080531BB11C4B083BD8
:102540001A6802E0194B083B1A6802EA01030BB152
:10255000012000E00020704700F0805119B11449BB
:10256000091F086002E011490839486070470146B8
:102570000020002201F080531BB10D4B083B1A686C
:1025800002E00A4B083B1A6802EA01030BB1012082
:1025900000E00020704700F0805119B10449091F84
:1025A000086002E0014908394860704708000240AD
:1025B0000804024010B504464CB16068401C30B1BC
:1025C0006068401E606010B9204603F074F910BDC9
:1025D0002DE9F04F85B004460D46904654B1207861
:1025E000012807D1204603F039F918B9002005B0B9
:1025F000BDE8F08F3CB1207828B9204603F0CCFA32
:1026000008B90020F3E7002C6DD0207800286AD1AB
:102610000027FBA1284600F0A6FF68B100BF04E038
:1026200028780DF807007F1C6D1C28782E28F7D11C
:1026300000200DF8070003E02946684600F0CEFFB1
:10264000204603F031FA824603F03AFA06463EE0AD
:10265000304600F0A4FF8246684600F0A0FF8245A5
:1026600029D16946304600F07EFF20B3684600F06D
:1026700096FF8246284600F092FF82450ED12946F9
:10268000684600F070FF48B1484603F0C9FA824638
:102690005146404600F0A2FF0120A8E76D1C3146DC
:1026A000204603F0F3F9824642462946FFF790FFA1
:1026B00008B101209BE7304603F01CFA83465946D7
:1026C000204603F003FA824603F0FAF9064646B1C3
:1026D000304603F00FFA824603F006FAB0F1000923
:1026E000B6D1002083E7C4B12078012815D1002697
:1026F0000DE03146204603F07DF807464246294664
:10270000FFF766FF08B1012071E7701CC6B22046D2
:1027100003F0A4F8B042ECD800BF002067E7B0B5E2
:10272000ADF5A06D4FF48062B64940A800F0DDFE23
:10273000002403F085F907460022042140A803F095
:1027400041F905466A46B0A12846FFF741FF40B16E
:10275000AFA1684600F007FF18B13146B0A001F004
:10276000C1FDB14940A800F039FF0022042140A872
:1027700003F028F905466A46A3A12846FFF728FF7B
:1027800040B1AAA1684600F0EEFE18B13146A4A0FF
:1027900001F0A8FD0DF5A06DB0BD2DE9FC41074687
:1027A0000C4600264FF40071A44800F0C5FE00203E
:1027B00003460246A2A1CDE90007A04801F0B6FDFC
:1027C00001209E498870201210B9FF20C87002E0D5
:1027D00020129A49C870FF2094FBF0F100FB1140D1
:1027E00096490871002505E09448405D3044C6B222
:1027F000681C85B2601DA842F6DC314693A001F04A
:1028000071FD33468D4A96A1104601F08FFD8B492C
:1028100095A001F067FDBDE8FC812DE9F74F86B07A
:1028200080460D4676A1284600F09DFE002847D040
:10283000002600BF05E0287801A98855701CC6B2A3
:102840006D1C28782E28F6D1002001A988556D1C12
:10285000404603F01BF904468CB903F0F1F8044636
:10286000089803F0C8F907463A462946204603F07F
:1028700059F9224601A9404603F054F91CE0089892
:1028800003F0B9F907463A462946204603F04AF9CB
:10289000C1460DF1040A2746384628B14168491C53
:1028A00011B14168491C416000BF83465A465146F8
:1028B000484603F037F900BF012009B0BDE8F08FAA
:1028C000089803F098F9044622462946404603F04A
:1028D00029F900BFF1E770B502460123002415462F
:1028E00000E0641C6448D0F80008634ED6F8046821
:1028F000B04201D18C42F4DB5F48D0F800085E4E54
:10290000D6F80468B04201D1002070BD0AB9012098
:10291000FBE70BE05848D0F80008401C564EC6F8BC
:102920000008C0F30A00335C1370521C3BB15248DC
:10293000D0F80008504ED6F80468B042EAD3002020
:1029400010700120E1E7FEB505460C4600274FF464
:1029500000713A4800F0F0FD002604E0A85D38441C
:10296000C7B2701C86B2A642F8DB002003460246BE
:1029700042A18DE8A100314801F0D8FC00202F4988
:102980008870E0B20012C8700C71FEBD70B52B48A3
:1029900000F005FE00287FD00024284800F0FFFD4D
:1029A00085B20BE0394801880088401C374A108006
:1029B0002248405C36490855601CC4B2642C03DAD6
:1029C00032480088A842EDDB1C4800F0E8FD2F49A2
:1029D000098888420AD80A222046611CCCB22C49B8
:1029E0000A540020294908801449087021462948C2
:1029F000FDF7C3FD3220FDF712FE012070BD4BE054
:102A00002E000000286D0008747970650000000039
:102A1000476574446F6F72436F6E666967000000AC
:102A200025730D0A00000000D0710008536574443E
:102A30006F6F72436F6E666967000000E4080020E4
:102A40005A5925632563256325730000746F7461EB
:102A50006C436865636B2069733A2564000000006D
:102A6000257325630000000053656E644461746142
:102A70002069733A25730000B00000205A5925637D
:102A80002563256325732563000000004C000020AA
:102A9000E40A002044000240002070BD2DE9F0430C
:102AA000ADF5437DFFF772FF20B101200DF5437DA9
:102AB000BDE8F083FE48007801280CD1FDA4204633
:102AC00000F06DFD85B229462046FFF73CFF00204F
:102AD000F749087000BFFF2143A8FFF7FCFE08B9C3
:102AE0000020E3E7002443A9F4A001F0FBFB02F07F
:102AF000A7FF81460022042143A802F063FF80461D
:102B000003AAAFF2FC014046FFF762FD00287CD02B
:102B1000EFA103A800F027FD002840D003AAF0A1F0
:102B20004046FFF755FD002838D003AAEEA14046E5
:102B3000FFF74EFD20B103AAEBA14846FFF76DFE5B
:102B4000ECA2AFF23C114846FFF767FEEEA2EFA100
:102B50004846FFF762FEF0A2F0A14846FFF75DFE8F
:102B600000242246F0A1684601F0E0FB6A46EFA18E
:102B70004846FFF752FEDBA2EFA14846FFF74DFEA5
:102B80004FF40871484602F0D5FE0746384600F07B
:102B900006FD85B229463846FFF7FFFD0BE3E9A1A4
:102BA00003A800F0E0FC002830D003AACEA14046E4
:102BB000FFF70EFD20B103AACBA14846FFF72DFE7B
:102BC000E0A2AFF2BC114846FFF727FE00242246E0
:102BD000D5A1684601F0AAFB6A46D4A14846FFF792
:102BE0001CFEC0A2D4A14846FFF717FE4FF408719F
:102BF000484602F09FFE0746384600F0D0FC85B2FA
:102C000029463846FFF7C9FDD5E2D1E2AFF20021EF
:102C100003A800F0A8FC00287ED003AAB2A1404679
:102C2000FFF7D6FC20B103AAAFA14846FFF7F5FD98
:102C3000C7A2AFF22C214846FFF7EFFDC948027842
:102C4000B9A1684601F072FB6A46C7A14846FFF782
:102C5000E4FDCA480278B4A1684601F067FB6A4601
:102C6000C7A14846FFF7D9FDCB480288AEA1684608
:102C700001F05CFB6A46C9A14846FFF7CEFDCC488F
:102C80000288A9A1684601F051FB6A46C9A14846DD
:102C9000FFF7C3FDCD480278A3A1684601F046FBCB
:102CA0006A46CBA14846FFF7B8FDCF4802789EA1FF
:102CB000684601F03BFB6A46CCA14846FFF7ADFDF4
:102CC000CF48027898A1684601F030FB6A46CDA152
:102CD0004846FFF7A2FDD148006800F097FC054682
:102CE0002A460B46CEA1684601F020FB6A46CEA1DB
:102CF0004846FFF792FDD248006800F087FC054681
:102D00002A460B46C6A1684601F010FB6A46CDA1D3
:102D10004846FFF782FD00E02EE0D148006800F051
:102D200075FC05462A460B46BDA1684601F0FEFA31
:102D30006A46CCA14846FFF770FD002422467AA1DE
:102D4000684601F0F3FA6A4678A14846FFF765FD48
:102D500064A279A14846FFF760FD4FF40871484628
:102D600002F0E8FD0746384600F019FC85B2294616
:102D70003846FFF712FD1EE2AFF2503103A800F013
:102D8000F2FB00287ED003AA57A14046FFF720FCA3
:102D900020B103AA54A14846FFF73FFDB7A2AFF206
:102DA00098314846FFF739FD03AA6FA14046FFF767
:102DB0000FFC03A800F01DFC6A49087003AA70A16B
:102DC0004046FFF705FC03A800F013FC6B490870B0
:102DD00003AA72A14046FFF7FBFB03A800F009FC21
:102DE0006D49088003AA73A14046FFF7F1FB03A8D1
:102DF00000F0FFFB6E49088003AA75A14046FFF76B
:102E0000E7FB03A800F0F5FB7049087003AA77A15F
:102E10004046FFF7DDFB03A800F0EBFB72490870AA
:102E200003AA78A14046FFF7D3FB03A800F0E1FB1B
:102E30007349087003AA7CA14046FFF7C9FB03A8A9
:102E400001F04BFF054600F00DFC7449086003AA31
:102E50007CA14046FFF7BCFB03A801F03EFF0546FE
:102E600000F000FC7649086003AA7EA14046FFF707
:102E7000AFFB03A801F031FF054600F0F3FB7849F2
:102E8000086000E010E10024224627A1684601F016
:102E90004DFA6A4625A14846FFF7BFFC11A226A1BC
:102EA0004846FFF7BAFC4FF408714846F0E00000CE
:102EB0004A000020726573746F7265005265637614
:102EC00069636520446174613A25730D0A0000004E
:102ED00047657441706956657273696F6E000000D2
:102EE0006461746100000000757365725F646174F1
:102EF000610000005265706C795F476574417069CC
:102F000056657273696F6E00320000006170695F10
:102F100076657273696F6E00330000006170705FD8
:102F200076657273696F6E00256400006572726F5A
:102F3000725F636F646500006572726F725F7374B5
:102F4000720000004865617274626561740000007F
:102F50005265706C795F476574446F6F72436F6E32
:102F60006669670039000020646174612E69735FCF
:102F70006175746F5F636C6F7365000030000020D3
:102F8000646174612E69735F6C6F636B5F656E6102
:102F9000626C6564000000003200002064617461AE
:102FA0002E6F70656E5F737461795F74696D650013
:102FB00034000020646174612E6C6F636B5F646524
:102FC0006C61795F74696D65000000003600002057
:102FD000646174612E69735F6465746563745F65B1
:102FE0006E61626C6564000037000020646174618A
:102FF0002E69735F616C776179735F6F70656E00C6
:1030000038000020646174612E69735F646F7562BB
:103010006C655F67726F7570000000003C000020F7
:10302000252E316600000000646174612E72756E99
:103030005F73706565645F726174696F00000000A2
:1030400040000020646174612E72756E5F6163637D
:103050005F73706565645F726174696F0000000082
:1030600044000020646174612E73747564795F7329
:10307000706565645F726174696F00005265706CA1
:10308000795F536574446F6F72436F6E6669670052
:1030900002F050FC0746384600F081FA85B2294616
:1030A0003846FFF77AFB86E0B9A103A800F05BFA87
:1030B00000283AD003AAAFF2D0114046FFF788FAB1
:1030C00028B103AAAFF2E0114846FFF7A6FBB4A26D
:1030D000AFF2CC614846FFF7A0FBB64AB6A148461E
:1030E000FFF79BFB00242246AFF2C411684601F0B3
:1030F0001DF96A46AFF2CC114846FFF78EFBAFF2DE
:103100001C22AFF2CC114846FFF787FB4FF4087141
:10311000484602F00FFC0746384600F040FA85B2F8
:1031200029463846FFF739FB45E0A6A103A800F081
:103130001AFA00283FD003AAAFF254214046FFF705
:1031400047FA28B103AAAFF260214846FFF765FBB2
:103150009EA2AFF24C714846FFF75FFBAFF27C22B4
:10316000AFF284214846FFF758FB00242246AFF215
:103170004821684601F0DAF86A46AFF25021484625
:10318000FFF74BFBAFF2A422AFF254214846FFF702
:1031900044FB4FF40871484602F0CCFB0746384622
:1031A00000F0FDF985B229463846FFF7F6FA02E04D
:1031B0008AA001F097F8384602F0DEF84046FFF7A3
:1031C000F9F94846FFF7F6F901206FE410B5FFF76B
:1031D00065FC012010BD70B505460C462246AFF2D5
:1031E000D8712846FFF7F4F920B981A001F07AF8E8
:1031F000002070BD0120FCE7F8B506460F463046BA
:10320000FDF746FA4FF400737E4A7F497F48FDF789
:103210008DF9012280217C48001FFEF721F800254E
:103220002CE07B48284490F8E847102C05DA224629
:1032300078A1684601F07AF804E0224676A1684653
:1032400001F074F800240FE01DF80400612809DB88
:103250001DF80400662805DC1DF804002038C0B203
:103260000DF80400601CC4B21DF804000028EBD166
:103270006946504800F06BF9681CC5B20C2DD0DBD4
:10328000F8BD0020704710B504462046FDF7C2FA8D
:1032900010BD70B5044604B970BD0A20B4FBF0F54A
:1032A0002846FFF7F6FF0A20B4FBF0F100FB1140BF
:1032B00000F130052846FFF7E6FF00BFECE70FB44A
:1032C00038B505A8009053E0049800785C281AD11E
:1032D0000498401C049000786E2808D072280DD104
:1032E0000D20FFF7D0FF0498401C04900AE00A204C
:1032F000FFF7C9FF0498401C049003E00498401CA9
:10330000049000BF34E00498007825282AD104985E
:10331000401C04900078642810D073281DD10098B8
:1033200010C8009003E02078FFF7ADFF641C207800
:103330000028F8D10498401C049012E0009820C89E
:1033400000901DB93020FFF79EFF02E02846FFF7EE
:10335000A0FF0498401C049003E00498401C0490D3
:1033600000BF05E0049911F8010B0491FFF78BFFF2
:10337000049800780028A7D1009038BC5DF814FBB1
:1033800010B5AFF2A040FFF79AFF012010BD00007A
:1033900047657453616665436F6E66696700000038
:1033A0005265706C795F47657453616665436F6EF3
:1033B00066696700B8080020646174612E746F6BE1
:1033C000656E0000436F6D6D616E64005265706CD8
:1033D000795F436F6D6D616E64000000656E636FB1
:1033E0006465206A736F6E206572726F72210000CF
:1033F0004765744A736F6E54797065206572726F99
:10340000720D0A00E40A0020043801404400024022
:1034100000F0FF1F302578002578000001460020CD
:10342000704730B50B46014600202022012409E0F8
:1034300021FA02F59D4205D303FA02F5491B04FA6D
:1034400002F52844151EA2F10102F1DC30BD2DE980
:10345000FE43994615468846074601AC022942D3E9
:10346000002D40D000200290A8F101004FF0FF365F
:10347000009022E000FB057201FB057011464A46F0
:103480009047002805DC54F82600304444F8260014
:1034900013E060682A4600FB057154F8040C00FB39
:1034A000057007E00B7890F800C001F801CB00F838
:1034B000013B521E002AF5D1764254F8040C616893
:1034C0008842D7DC4B462A463846FFF7C0FF54F8FF
:1034D000040C4B46A8EB0001401C00FB05702A467B
:1034E000491EFFF7B4FFBDE8FE8310B5431A9342AF
:1034F00009D28318881803E010F8011D03F8011D94
:10350000521EF9D210BD40EA01039B0703D009E027
:1035100008C9121F08C0042AFAD203E011F8013BBF
:1035200000F8013B521EF9D210BDD2B201E000F802
:10353000012B491EFBD270470022F6E710B5134657
:103540000A4604461946FFF7F0FF204610BD421E0A
:1035500012F8013F002BFBD111F8013B02F8013BAF
:10356000002BF9D1704730B505462A460B4612F8B4
:10357000010B13F8014B08B1A042F8D01CB1002890
:1035800002D06D1CF1E7284630BDCAB2401E10F8CB
:10359000011F8A4202D00029F9D100207047421C45
:1035A00010F8011B0029FBD1801A704710B50022CA
:1035B00000E0521C835C8C5CA34201D1002BF8D14B
:1035C000D8B2E1B2401A10BDCBB203E00178994203
:1035D00003D0401C521EF9D200207047034611F858
:1035E000012B00F8012B002AF9D11846704700F092
:1035F0000DB970B5064600F0E3FE046805460A22E0
:103600000021304600F0CAF82C6070BD00F0004286
:1036100030F000400AD0C10D01F56071C0F3160012
:1036200042EA0151C2084007114370470020014699
:103630007047000030B5041E71F1000404DB4FF048
:103640000044404264EB0101141E73F1000405DBE9
:103650001C464FF00043524263EB04038B4208BF09
:10366000824230BD01F0004330B421F0004150EA05
:10367000010206D00A0DA2F56072C1F31301002AFF
:1036800002DC30BC00207047440F44EAC104C10092
:10369000E01830BC00EBC25000F000B92DE9F05F3B
:1036A0000546002092469B468846064681464024B1
:1036B0001BE0284641464746224600F05CFB534645
:1036C0005A46C01A914110D311461846224600F0BE
:1036D00043FB2D1A67EB01084F46224601200021CB
:1036E00000F03AFB17EB00094E41201EA4F1010443
:1036F000DFDC484631462A464346BDE8F09F0000DD
:103700000FB4002300B589B00CA900910B996FF09C
:103710000042CB601E4B06931E4B07930423CDE95A
:1037200001321D4A089202466B46002000F0D4FB8D
:1037300009B05DF814FB70B586B006464FF0FF3057
:103740000091CDE90101002015460C460490324657
:10375000694604A8FFF7D4FF03460498211825B151
:1037600008B10A4600E022462A6000280DD0002B4E
:1037700002DD0098884208D0081B0094CDE90104BE
:103780003246694604A8FFF7BBFF06B070BD0000D3
:10379000114100082F410008C53D00082DE9F04700
:1037A00091460F4680460446002614F8015B2DB171
:1037B00000F004FB0068405DC007F6D12B2D02D05D
:1037C0002D2D18D0641E4A463946204600F0C0FC14
:1037D00027B13968A14201D1C7F8008071054FF0C7
:1037E00002040BD54042002803DD00F0E9FD04602F
:1037F000A007BDE8F08746F48066E4E70028F8DA21
:1038000000F0DEFD04606FF00040F2E72DE9F047C4
:1038100091460E4680460446002514F8017B2FB1E0
:1038200000F0CCFA0068C05DC007F6D12B2F02D0A3
:103830002D2F1ED0641E4A463146204600F0D7FC8C
:1038400026B13268A24201D1C6F800806A054FF065
:10385000020418D50023D0EB030563EB01025D1BC6
:10386000934109DB0023D0EB030063EB0101BDE8CA
:10387000F08745F48065DEE700F0A2FD04600020DB
:103880004FF00041F3E7021E71F10002EFDA00F0A1
:1038900097FD04604FF0FF304108E8E70029A8BF1A
:1038A0007047401C490008BF20F00100704710B469
:1038B000B0FA80FC00FA0CF050EA010404BF10BC1E
:1038C000704749B1CCF1200421FA04F411FA0CF14B
:1038D00018BF012121430843A3EB0C01CB1D4FEA84
:1038E00000614FEA102042BF002010BC704700EB7F
:1038F000C35010440029A4BF10BC7047401C4900AD
:1039000008BF20F0010010BC704710B5141E73F101
:10391000000408DA401C41F1000192185B411A438F
:1039200001D120F0010010BD2DE9F04D92469B46DB
:1039300011B1B1FA81F202E0B0FA80F22032904681
:1039400000F00AFA04460F4640EA0A0041EA0B0179
:1039500053465A46084313D0114653EA010019D082
:10396000C8F14002504600F006FA05460E465046A1
:103970005946424600F0F0F9084305D0012004E022
:1039800020463946BDE8F08D0020054346EAE07642
:103990002C4337430A986305E40AA0EB0800002291
:1039A000FD0A44EA47540A3002D500200146E9E7FF
:1039B000010510196941DDE9084500196941BDE8B3
:1039C000F04DA2E72DE9FE4F804681EA0300C00FCB
:1039D0000C46009021F0004123F00045B8EB0200B6
:1039E000A94105D24046214690461C460B46024658
:1039F00023F00040104347D0270DC7F30A00C3F35C
:103A00000A510290401A019040286BDAC3F3130068
:103A100040F4801B0098924620B10023D2EB030AA9
:103A200063EB0B0B01985946C0F14002504600F081
:103A300093F906460D4650465946019A00F0ABF9F7
:103A400010EB08006141002487EA115284EAE77311
:103A50001A4340D0009A62B3019A012A4FEA0752F2
:103A600015DC001B61EB02014FF0004202EA075235
:103A7000CDE90042001C41F5801132462B46FFF78C
:103A800053FF03B0BDE8F08F40462146F9E7001B25
:103A900061EB0201001C41F5801300185B41201806
:103AA000A2F5001747EB030140EAD570B6196D4146
:103AB00011E06D084FEA360645EAC0754FEA075235
:103AC000001B61EB0201001C41F5801149084FEA1F
:103AD00030000019514132462B4603B0BDE8F04F8B
:103AE000FFF713BF0098012240000023D0EB020231
:103AF00063EBE073009821464FEAE074B8EB0000F6
:103B000061EB0401E9E783F000435BE781F00041EA
:103B100058E72DE9FE4F81EA030404F0004421F048
:103B2000004100944FF0000B23F0004350EA0104E1
:103B30005ED052EA03045BD0C3F30A54C1F30A55C2
:103B40002C44A4F2F3340194A0FB0254C1F31301FA
:103B500041F48011C3F3130343F4801301FB0244C7
:103B600000FB034E840A970A44EA815447EA8357CC
:103B7000A4FB076802958D0A05FB07854FEA932C85
:103B800004FB0C542705029D4FEA065847EA1637F6
:103B9000B5EB08056EEB070C870E920E47EA81170E
:103BA00042EA8312A7FB0201B6EB0B0164EB0004AF
:103BB0002B0D43EA0C335E1844EB1C50DA46514699
:103BC000E7FB0201C5F313044FEA0B3343EA145336
:103BD0004FEA0432019C43EA0603A4F10C04029468
:103BE000009CCDE900B4FFF79FFE03B0BDE8F08F65
:103BF00000200146F9E72DE9F04D81EA030404F0C5
:103C0000004B21F0004514464FF0000A23F000411C
:103C100050EA050220D054EA01021DD0C5F30A572C
:103C20000246C5F31303C1F31300C1F30A5640F46F
:103C3000801543F48013A7EB0608101BD64608F244
:103C4000FD3873EB050002D308F1010801E092187A
:103C50005B41B8F1000F03DA00200146BDE8F08DAA
:103C600000204FF48011064684460EE0171B73EBCC
:103C7000050705D3121B63EB050306434CEA010C51
:103C800049084FEA300092185B4150EA0107EDD134
:103C900052EA030012D082EA040083EA05010843D5
:103CA00005D0101BAB4106D20122002306E0002202
:103CB0004FF0004302E06FF0010253101AEB0600D0
:103CC0004CEB085110EB0A0041EB0B01BDE8F04D45
:103CD000FFF71BBEC1F30A52C1F3130140F2FF33D9
:103CE00041F480119A4202DA00200146704740F206
:103CF00033439A42A2F2334202DC524200F03BB814
:103D000000F02AB830B5041E71F1000404DB4FF056
:103D10000044404264EB0101141E73F1000405DB12
:103D20001C464FF00043524263EB0403994208BF24
:103D3000904230BD064C074D06E0E06840F00103BC
:103D400094E8070098471034AC42F6D3FCF7F4F936
:103D50005073000870730008202A04DB203A00FA30
:103D600002F1002070479140C2F1200320FA03F3D2
:103D7000194390407047202A04DB203A21FA02F0D0
:103D80000021704721FA02F3D040C2F12002914095
:103D9000084319467047202A06DBCB17203A41FA20
:103DA00002F043EAE07306E041FA02F3D040C2F1C8
:103DB00020029140084319467047000000487047B0
:103DC000CC71000810B50446FFF7F8FF0068005DED
:103DD00000F0010010BD00002DE9FF4F087881B010
:103DE0009946FF2805D0491C2D2804D00024002323
:103DF00008E000230BE00124F9E703EB830300EB69
:103E00004303491C0878FF28F7D104B15B42002026
:103E10000090147801462D2C01D02B2C04D1521C7B
:103E20002D2C12D00024009400251678FF2E0ED0E1
:103E30000A24A0FB04C801FB0481002700FB071132
:103E4000521C16EB0C006941EFE70124EBE79944A3
:103E500050EA01020ED00024AA4D2646DFF8A882BF
:103E600000F034FA82468B46B9F1000009DAC9F154
:103E700000071BE001980021C0E9001105B0BDE872
:103E8000F08F074612E0F80707D022462B4630464F
:103E90004146FFF73EFE0646884622462B46104620
:103EA0001946FFF736FE04460D467F10002FEAD173
:103EB000B9F1000F324643465046594602DAFFF741
:103EC0009AFE01E0FFF725FE009A0AB181F0004159
:103ED000019AC2E90001D1E72DE9FF4F1F468DB0DD
:103EE000D7E901464FF0FF382E2045464FF0000934
:103EF0000B90B9696D1C0E988847396A82468847CD
:103F00000028F6D1BAF1FF3F0AD024F4D064002E85
:103F100011DDBAF12B0F08D0BAF12D0F0BD102E051
:103F2000404611B0ABE744F48064B9696D1C0E984B
:103F300088478246761E6946600501D52D2000E03F
:103F40002B208DF8000001F1010B0DF1200809E094
:103F5000B9696D1C0E98884782460F9844F4007426
:103F6000761E0560002E02DDBAF1300FF0D00B99FD
:103F70008A453ED144F0800406E00F99681CA9F1FF
:103F8000010944F400740860B9696D1C761E0E982E
:103F9000884782463028F0D02BE00B998A4505D11E
:103FA000200603D444F08004761E18E0504600F04A
:103FB000D9FA08B30DF11301761E44F400748B4551
:103FC00008D2AAF130000BF8010B200607D5A9F1A1
:103FD000010003E0200602D409F101008146A0059A
:103FE00002D50F99681C0860B9696D1C0E98884746
:103FF0008246002ED1DC53E0002E51DDBAF1650F70
:1040000002D0BAF1450F4BD1A00549D5B9696D1C55
:1040100024F44074761E0E9888478246002E0CDDEC
:104020002B2804D0BAF12D0F07D144F48074B9695C
:104030006D1C0E9888478246761EE00501D52D211D
:1040400000E02B2108F8011BCDF82C8021E00DF1B8
:104050002901761E44F4007488450CD2AAF1300080
:1040600010F0FF0088F8000002D10B99884509D9AB
:1040700008F1010806E0E00501D5244801E042F21C
:104080000F708146B9696D1C0E98884782460F985B
:104090000560002E04DD504600F064FA0028D6D1F9
:1040A000F9690E988847FF208BF8000088F8000017
:1040B0000020069007904B466A4608A906A8FFF71D
:1040C0008BFEA00502D46FF001002AE714F0240F44
:1040D0000AD0E00714D1DDE906123868031D3B6001
:1040E0000068C0E900120BE0DDE90601FFF7BAFA4B
:1040F0000146E00704D13868021D3A60006801609B
:1041000028460EE7000024400000F03FF1D8FFFFF2
:10411000426842B1016811F8013B23B1521EC0E967
:104120000012184670470121C160881E704742681E
:104130005AB1C368016843B983688B4205D0491EF0
:10414000521CC0E90012002070474FF0FF3070474A
:104150002DE9F05F82460078002715468B460AF16C
:104160000104B946302801D09DB113E014F8010BC9
:104170000127782803D0582801D045B10AE00DB1B5
:10418000102D07D10027102514F8010B02E0082597
:1041900000E00A250026B0460EE005FB080005FBFE
:1041A00006F1012701EB10461FFA80F8B6F5803FB3
:1041B00000D3B94614F8010B294600F079F800281D
:1041C000EBDABBF1000F05D00FB1641E00E05446DE
:1041D000CBF80040B9F1000F06D000F0F1F8022151
:1041E0000160C81EBDE8F09F48EA0640FAE72DE9E5
:1041F000F74F4FF00009009C1546CA4614F8010B12
:10420000302801D0ADB115E014F8010B4FF00109D1
:10421000782803D0582801D04DB10BE00DB1102DF6
:1042200008D14FF00009102514F8010B02E0082511
:1042300000E00A2500273E46B8464FEAE57B16E037
:10424000A5FB07230BFB073105FB080005FB061642
:10425000030CD71846F100061FFA80F8381E4FF0FD
:10426000010976F5803000D3CA4614F8010B2946BF
:1042700000F01EF80028E3DA019838B1B9F1000F18
:1042800001D0641E00E0009C01980460BAF1000FA8
:1042900008D000F095F802210160C81E014603B065
:1042A000BDE8F08F310441EA174148EA0740F6E7DC
:1042B0003A2800D2303820F02002412A01D3A2F15E
:1042C0003700884201D34FF0FF3070470EB540F2FF
:1042D000334202920022CDE900221346FFF724FB6D
:1042E00003B000BD0FB4054B10B503A9044A0298F2
:1042F00000F040F910BC5DF814FB000079060008DE
:10430000780000200FB41CB50A46521ECDE9000209
:1043100007A9054B6A46069800F02CF9009A00217F
:1043200011701CBC5DF814FBA34C00080FB4084BC3
:1043300010B504A902AA039800F01CF9044602A9CA
:10434000002000F0B9FC204610BC5DF814FB000012
:10435000B94C00087CB5491E1C461546CDE9000144
:10436000044B6A462146284600F004F9009A0021D1
:1043700011707CBDA34C000830B47446641E2578CF
:10438000641CAB4200D21D46635D5B00E31830BC89
:104390001847012249005205D14201D1002801D01D
:1043A0000020704701207047002800D00120014301
:1043B000480002494008081AC00F70470000F07F0B
:1043C00000487047740000200148006870470000F2
:1043D0007400002002E008C8121F08C1002AFAD1A8
:1043E00070477047002001E001C1121F002AFBD175
:1043F0007047000001490860704700007400002009
:104400002DE9FF5FDDE90220010DDDF838B0024340
:1044100018D044F61050A1F2FF3141430D140F980B
:10442000012820D0A5EB0B00401C5FEA000A4FF0EA
:104430000004474EDFF81C91A046504616D5CAF13D
:10444000000728E00F98012443A2012808D000218A
:1044500000980F9BC0E90021C0E90243BDE8FF9F1F
:104460006FEA0B01F4E7CBF10000DEE7074612E04C
:10447000F80707D02246334640464946FFF749FB36
:10448000804689462246334610461946FFF741FBCF
:1044900004460E467F10002FEAD1DDE90201BAF191
:1044A000000F42464B4602DAFFF733FB01E0FFF70D
:1044B000A2FB04460E460022284BFFF723FC03D83C
:1044C0004FF0FF30014607E00022254B20463146E1
:1044D000FFF778FAFFF7FEFB102409E0002C0ADB57
:1044E0000A220023FFF7DAF8019B30321A55641EC6
:1044F00050EA0102F2D1641C019AC4F11103144480
:104500000F9A012A03D0012208430DD10AE0084383
:1045100004D000204FF0110B0F9080E7A3EB0B05A8
:104520006D1E0DE05B4504DD4FF0000205F1010555
:1045300004E003DA4FF00002A5F10105002AECD0F7
:1045400000980F99C0E90231C0E9004586E70000F4
:10455000000024400000F03F300000000000F04365
:104560000000E03F30380A2801D2012070470020C7
:10457000704700002DE9FF4F95B09B4689460646DF
:1045800000250FE2252877D100242746F84A01218B
:10459000059400E0044316F8013F203B01FA03F0C4
:1045A0001042F7D130782A2811D06FF02F033078DD
:1045B000A0F13002092A16D8059A44F0020402EB51
:1045C000820203EB42021044761C0590EFE759F893
:1045D000042B0592002A03DA504244F4005405905B
:1045E00044F00204761C30782E2816D116F8010FFC
:1045F00044F004042A280DD06FF02F023078A0F187
:104600003003092B09D807EB870302EB4303C718D4
:10461000761CF3E759F8047B761C30786C280FD0B1
:1046200006DC4C2817D068280DD06A2814D104E085
:10463000742810D07A280FD10DE044F400140AE059
:1046400044F4801401E044F440147278824202D1B0
:1046500004F58014761C761C307866280BD013DCA9
:10466000582877D009DC002875D04528F6D0462890
:10467000F4D047281AD19DE118E0632835D064288A
:1046800079D0652812D195E1702873D008DC6728AD
:10469000F1D069286FD06E280DD06F2806D1B5E013
:1046A00073282CD0752875D0782874D05A4617995D
:1046B00090476D1C75E1C4F30250022809D003280D
:1046C0000DD0D9F8001004280DD00D6009F10409AF
:1046D00067E1D9F80010EA17C1E90052F6E7D9F806
:1046E00000100D80F2E70D70F0E719F8041B8DF84B
:1046F000001000208DF80100EA46012003E059F87F
:1047000004AB4FF0FF3061074FF0000102D40DE021
:1047100008F101018846B9420FDA8045F8DB1AF842
:1047200008100029F4D108E008F10101884681420F
:10473000FADB1AF808100029F6D105985B46A0EBC1
:10474000080721463846179A00F094FA284400EBEF
:10475000080507E04DE029E10DE01AF8010B5A4683
:1047600017999047B8F10108F7D25B4621463846C1
:10477000179A13E142E00A220092C4F302524FF06A
:10478000000A022A08D059F804CB032A4FEAEC7138
:104790000AD00DE029E02AE009F1070121F0070223
:1047A000F2E802C1914609E00FFA8CFC4FEAEC7185
:1047B000042A03D14FFA8CFC4FEAEC71002907DA86
:1047C0000A460021DCF1000C61EB02012D2202E01F
:1047D000220504D52B228DF80420012203E0E207F4
:1047E00001D02022F7E7904659E00A2102E010228A
:1047F0000DE010214FF0000A00910BE010224FF065
:10480000000A44F004040827009203E008224FF055
:10481000000A0092C4F30252022A05D059F804CBD0
:104820000021032A08D009E009F1070121F007025D
:10483000F2E802C1914605E01FFA8CFC042A01D17E
:104840000CF0FF0C4FF00008220728D5702806D086
:10485000009B83F0100353EA0A0305D00EE04022C8
:104860008DF80420012208E05CEA010206D0302223
:104870008DF804208DF8050002229046009B83F0FD
:10488000080353EA0A030AD15CEA010201D1620774
:1048900005D530228DF804204FF001087F1E5828DE
:1048A00004D034A003900EA802900DE036A0F9E7E2
:1048B00053466046009AFEF7F1FE84460398825CF8
:1048C0000298401E029002705CEA0100F0D102984A
:1048D00006A9081A00F1200A600702D524F48034E2
:1048E00000E00127574502DDA7EB0A0000E00020A9
:1048F00000EB0A01009005984144401A0590E0033E
:1049000006D45B462146179A059800F0B3F9054492
:10491000002706E001A85A46C05D179990476D1C14
:104920007F1C4745F6DBE0030CD55B462146179A12
:10493000059800F09FF9054404E030205A46179985
:1049400090476D1C0099481E00900029F5DC08E096
:10495000029802995A460078491C0291179990478B
:104960006D1CBAF10001AAF1010AF1DC65E1000059
:104970000928010030313233343536373839616235
:1049800063646566000000003031323334353637F9
:1049900038394142434445460000000000F058F9D0
:1049A0000544761C307800287FF4ECAD19B0284619
:1049B000BDE8F08F620700D4062709F1070222F054
:1049C000070CFCE80223E14603F000485FEA080C0C
:1049D00002D00FF2702C0DE05FEA045C02D50FF2FA
:1049E000682C07E05FEAC47C02D00FF2602C01E083
:1049F000AFF2700C4FF0FF3823F00043CDF850C0F9
:104A000065280CD006DC452809D046281DD047284B
:104A10003DD13DE0662818D067287ED138E00021DE
:104A2000112F01DB112000E0781CCDE9000106A95F
:104A30000EA8FFF7E5FCDDE90F010E9A03910021B6
:104A4000009207F1010A04914DE04FF000400097F9
:104A5000CDE9011006A90EA8FFF7D2FCDDE90F028F
:104A600003920E9B11990022DDF80CA00093049292
:104A700011B9791C00EB010AB7EB0A0004D4C0F1AC
:104A8000FF3007F1010A0490AAEB0700019044E00F
:104A9000012F00DA01270021112F01DD112000E094
:104AA0003846CDE9000106A90EA8FFF7A9FCDDE90B
:104AB0000F010E9A0391002104910092BA4621073A
:104AC0000CD40399514500DA8A46BAF1010F05DD8D
:104AD000009AAAF10101515C302908D0B84202DAEB
:104AE00010F1040F06DA0121CDE9011015E0AAF159
:104AF0000101E9E7002805DC049901440491AAEBCF
:104B0000000102E0411C514500DD8A460499401A2B
:104B1000401C01904FF000400290200704D40198FF
:104B2000504501DBCDF8048000208DF84F0002983D
:104B30000DF14F07B0F1004F25D02B200E900298B9
:104B40004FF0020800280CDA404202902D200E900F
:104B500007E00A210298FEF764FC3031029007F862
:104B6000011DB8F10001A8F10108F2DC029800284B
:104B7000EFD1791E0E980870307800F0200040F0D8
:104B8000450007F8020D12A8C01B00F10708149891
:104B9000007800B1012000EB0A01019801EBE071FF
:104BA00005984144401A401E0590E00306D45B4638
:104BB0002146179A059800F05DF80544149800788E
:104BC00018B15A46179990476D1CE00324D55B46EF
:104BD0002146179A059800F04DF805441CE004980A
:104BE000002807DBDDE90301884203DD0098405C13
:104BF000179901E0179930205A469047049805F11B
:104C00000105401C04900198401E019004D12E2003
:104C10005A46179990476D1CBAF10001AAF1010A92
:104C2000DDDC05E017F8010B5A46179990476D1C1B
:104C3000B8F10001A8F10108F4DC5B462146179A9F
:104C40000598ABE62D0000002B00000020000000BE
:104C50002DE9F041044600251E461746880404D479
:104C600005E039462020B0476D1C641EF9D5284662
:104C7000BDE8F0812DE9F041044600251E4690462E
:104C8000C80301D5302700E02027880404D505E0BB
:104C900041463846B0476D1C641EF9D52846BDE82C
:104CA000F0814A68002A06D00A68531C0B60107015
:104CB0004868401E486070470A68531C0B601070BB
:104CC000704770B50D4604998C0099008918AA00A8
:104CD00010182246FEF709FC70BD30B583B00446BB
:104CE000FFF772FB05460020CDE900000246214691
:104CF0006846FEF720FD2846FFF77CFBDDE9000152
:104D000003B030BD0A680C30824204D14868824248
:104D100001D1012070470020704710B50346197873
:104D20000020752901D0AFF300800122995C0001B9
:104D30000C46303C092C02D8401830380CE00C46A8
:104D4000613C192C02D84018573805E00C46413C0C
:104D5000192C05D840183738521C042AE6DD10BD3E
:104D60000020C04310BD0000FFB59DB01D98269DDA
:104D70001C460E4600287DD0007801210300FFF775
:104D8000FBFA089841321121090D05792A460421C0
:104D9000C9A08EE12A460421C9A08AE12A4605213C
:104DA000C9A086E11D9800F001FE01910090C8A203
:104DB000642102A8FFF7A6FA014664285AD22A46BF
:104DC00002A876E11D9800F00AFF3204D20E00928C
:104DD00002460B46642101A800F040FF010049D4BF
:104DE0002A4601A865E11D9800F011FF07461D98AD
:104DF00000F016FF2B4622463946009600F0AEF929
:104E000021B0F0BD1D9F7869002842D179611D98BD
:104E100000F024FD02902A460121AFA0A0470028FF
:104E200037D1029800280AD01F9923460022009506
:104E30003046491C00F062F900282AD134E00020F5
:104E400078612A460121A5A033E101461D9800F0B2
:104E5000D1FC1F9A234600953146521CFFF784FF70
:104E6000002816D102980199401E814214DA2A4680
:104E7000012100E014E19AA0A047002809D11F9960
:104E80002346012200953046491C00F037F90028DE
:104E900008D00020786103E12346002200953046C7
:104EA0001F99F2E70198401C029901908842CCDBDF
:104EB000C5E7B00603D58BA00390012002E08AA0CD
:104EC0000390022005901D980890006A00287DD16B
:104ED000089801621D9800F0E7FD06902A4601211E
:104EE00082A0A0470028F2D1069800286FD01F9911
:104EF0002346002200953046491C00F0FFF80028A8
:104F0000E5D1F005800F75D01D9800F045FE0290A8
:104F1000C00000F049FF0190002857D000270698F4
:104F200000F0B9FB0146F800019A00901150069874
:104F300000F0C6FD0146019A00988018416006996C
:104F40001D9800F0C3FD7F1C06900028E7D1029851
:104F5000874228D1300601D5654B00E0654B082219
:104F600002990198FEF773FA00274BE00198F900C7
:104F700008184068069001461D9800F087FD0990CA
:104F8000002810D00698FEF70AFB01462B46224661
:104F90000096069800F0E2F82A4605990398A04783
:104FA000002823D101E0AFF300801F9A234600952B
:104FB0003146521C0998FFF7D7FE002816D10298F7
:104FC000401E874217D22A46012101E065E06AE0CF
:104FD00043A0A047002809D11F992346012200952C
:104FE0003046491C00F08AF800280AD0019800F0E9
:104FF000D3FE52E039E023460022009530461F9947
:10500000F0E77F1C02988742B0D3019800F0C4FEFD
:1050100049E0069800F068FD1F9A23460095314646
:10502000521CFFF7A1FE002837D10498002810D0A9
:105030002A4601212AA0A04700282ED11F992346E5
:10504000012200953046491C00F058F8002824D170
:1050500009E023460022009530461F9900F04EF8E3
:1050600000281AD11FE00498069006991D9800F0B8
:105070002DFD0490069800F023FD0746FEF78FFAF9
:1050800001462B4622463846009600F067F82A462D
:1050900005990398A0470028BBD008990020086212
:1050A0000020C043ACE60899002008622A4601218E
:1050B00011A0A047A4E600006E756C6C0000000013
:1050C000747275650000000066616C736500000015
:1050D000256C6C64000000005B0000005D000000B7
:1050E0002C0000003A0000003A2000007B00000085
:1050F000D9640008E56400087D000000F8B50E469C
:105100001C46C10618D0C006C00E0090012110A098
:10511000069AA0470027FF43002807D1002508E092
:105120000C48069A0099A047002801D03846F8BDDF
:105130006D1CB542F4DB08E0002A06D0800604D4DA
:10514000012105A0069A9847F8BD0020F8BD00008F
:105150000A0000002871000820000000FFB589B097
:105160000F4606460B9B012140A00C9A9847002849
:1051700075D135463446F71918E0791B02AA28463E
:1051800001F0B0FD04006AD002985C2810D02228FB
:105190000ED020280CDB1299490501D52F2807D005
:1051A0001299490601D57F2802DC2546BC42E4D38A
:1051B000B54206D00B9BA91B30460C9A9847002895
:1051C0004DD1AC4206D10B9B012128A00C9A9847E7
:1051D0000DB0F0BD029A02210D2A23D008DC082A66
:1051E0001AD0092A20D00A2A1AD00C2A06D115E092
:1051F000222A0FD02F2A19D05C2A09D001200004BE
:10520000824215DA1AA105A8FFF790F8062120E0DE
:1052100019A01FE019A01DE019A01BE019A019E0BA
:1052200019A017E019A015E019A013E019A011E0CA
:10523000101A01031B22890DD2028A1802908005E0
:105240003721800D8902431813A105A8FFF76EF8D6
:105250000C2105A80B9B0C9A9847002802D000202F
:10526000C043B5E725462E46A0E700002200000017
:105270005C752530345800005C5C00005C22000046
:105280005C6200005C6600005C6E00005C72000006
:105290005C7400005C2F00005C75253034585C7530
:1052A000253034580000000013460A4610B5014668
:1052B000184601F01FFB10BD0FB4F0B5D5B00020AB
:1052C00000255290ED435A980C462AAE539500287B
:1052D00038D05DABA02130465C9AFFF73BF8002741
:1052E00050A8C771002C24D02046283001F068FB5C
:1052F000A1695391E569616A529100280DD0017846
:1053000000290AD0E16A142913D800902AAB10A210
:10531000A02102A8FEF7F6FF08E06069801C08D013
:105320002AAB0FA2A02102A8FEF7ECFF28A8C771A4
:1053300002AE10A0009001962A46529B53995A98AB
:1053400000F0EDFC55B0F0BC08BC04B018470000FC
:105350002573206E656172202725732700000000E9
:105360002573206E65617220656E64206F6620660D
:10537000696C65002573000010B5002821D0114B21
:105380000022001F196803E0814203D80A464968D9
:105390000029F9D152B11368841A9C4204D10068E3
:1053A00018441060104602E0506000E0186039B107
:1053B00002680B1A934203D10B681A4402604968D1
:1053C000416010BD7C00002070B5044688184E4A2C
:1053D00080180246154646E023785B1965782D0251
:1053E000EB18A5782D04EB18E5782D06EE18237937
:1053F0009A1863791B029A18A3791B049A18E37907
:105400001B069B18227A1018627A12021018A27AD0
:1054100012041018E27A12061518701B1C262A4670
:10542000F24142401046ED181B1A1A26F2415A402A
:1054300013464019ED1A1826F2416A4015461B180A
:10544000401B1026F2414240EE1810461B1A0D2553
:10545000EA4153408519F21A18461C26F041504083
:105460005A190C390C340C29B6D80B00FEF784FFFE
:105470000D4A2724211E1C191613110E0B08290092
:10548000E17A09060818A17A09040818617A090264
:105490000818217A0818E17909068A18A1790904FF
:1054A0008A18617909028A1821798A18E17809062F
:1054B0004D19A17809044D19617809024D19217817
:1054C0004D1912231146D9415040411A152308465F
:1054D0004D40D841281A07240346E3414240D21ADE
:1054E00010241346E3415140C91A1C240B4648407E
:1054F000E341C01A42401223D841101A4140082209
:10550000D041081A70BD0000EFBEADDE10B50446F4
:1055100000F004F8606800F03FFC10BD70B505466F
:105520000C35046908E06668A068241F00F0B7F92C
:10553000204600F031FC3446AC42F4D170BDF8B5E1
:105540000446406800F028FCA1680126491C30464A
:105550008840A1600090C00000F026FC6060002838
:1055600003D0002025460C3509E00020C043F8BDDB
:10557000C10062680B1DD5506268401C5550227AEC
:10558000314691408142F3D822696D602D600DE073
:10559000171F566838680099FDF743FF6068C90017
:1055A00041183A1D204600F0D1F83246AA42EFD108
:1055B0000020F8BDFFB581B01F460E46FFF7A2FBE5
:1055C000002813D13468251F2868B84206D1284620
:1055D00014300399FDF7EAFF002804D07068A04258
:1055E00004D06468EFE7284605B0F0BD0020FBE773
:1055F00070B504460D460846FDF7D1FF0B490A6811
:1056000001462846FFF7E0FE237A01219940491E12
:1056100001406268C900511803462A462046FFF738
:10562000C9FF002800D0C06870BD000070000020D5
:1056300070B50446002020600320A060402000F0E8
:10564000B3FB6060002806D020460C3020610021AA
:105650000123E06009E00020C04370BDCA00656816
:10566000161DA8516568491CA850257A1A46AA40FB
:105670008A42F3D8002070BD00B501460C3100F01D
:1056800003F800BD10307047024648680C32904263
:1056900000D100207047C0687047806870470000E4
:1056A000FFB50546027A012401682046904081B08A
:1056B0001F46814204D32846FFF741FF002840D10E
:1056C0000298FDF76CFF20490A6801460298FFF72F
:1056D0007BFE0646287A33468440641E3440686860
:1056E000E1004018009001462846029AFFF762FF49
:1056F000040004D0E06800F0D2F8E7601EE00298F1
:10570000FDF74DFF1521C8421BD2153000F04CFBB0
:10571000040016D0266003982061204614300299B8
:10572000FDF75CFF201DA060E7606060221D284639
:10573000009900F00BF82868401C2860002005B094
:10574000F0BD0020C043FAE77000002070B5154698
:105750000C460646FFF7D6FA002806D03046294602
:105760000C3000F07CFE656003E02946206800F004
:1057700076FE256070BD70B5182000F015FB0400A2
:105780000ED0012020700025E56060600820A06038
:10579000202000F009FB2061002802D0204665612E
:1057A00070BD204600F0F8FA002070BD70B5104EB4
:1057B0000D0005D0002817D00178012914D101E08F
:1057C000304670BDA8420FD001220446114600F0B9
:1057D0001FF8002808D0E168206989004550E0687A
:1057E000401CE060002070BD284600F04CF8E7E760
:1057F000FFFFFFFF002805D00278012A02D1C2680E
:105800008A4201D8002070470069890040587047DB
:10581000F8B50546C06817464318AA682869934238
:1058200019D9064654185000844200D80446A000F6
:1058300000F0BAFA00280ED0AC602861002F0BD01F
:10584000E9680023009132461946FFF73AFA3046DC
:1058500000F0A2FA2869F8BD3046F8BD002802D051
:105860000178012901D000207047C068704710B549
:10587000002807D041684A1C04D0491E416001D16C
:1058800000F019F810BD10B5002807D041684A1C77
:1058900004D0491E416001D100F00DF810BD10B5D3
:1058A000002807D041684A1C04D0491E416001D13C
:1058B00000F001F810BD70B500280AD00178002969
:1058C00008D001290BD002291AD0032915D00429A8
:1058D00013D070BD04460830FFF718FE0CE00446F4
:1058E000002504E0A9004058FFF7CDFF6D1CE068DB
:1058F000A8422069F6D805E0204600F04DFA70BDB8
:105900000446806800F048FAF6E738B51C469B0567
:1059100009D4002804D00378012B04D0002B02D036
:105920000020C04338BD0B46009200222146FFF7FD
:105930001BFA38BD3EB505460C46684601F023F813
:10594000002801D000203EBD23466A46094928466A
:10595000FFF7DBFF002801D0002405E0684601F0D6
:105960002FF800F029FA0446684601F000F82046B6
:105970003EBD0000A95200080048704758000020B2
:10598000002804D041684A1C01D0491C416070477E
:1059900070B504460D46102000F006FA002804D029
:1059A000032101700121021D32C270BD002802D006
:1059B0000178032902D00020014670478268C1683F
:1059C0001046704770B50E46044692B0154612A1B7
:1059D000104600F093F9002C0CD00020119010AA72
:1059E00010491094684600F063FA002808D000209F
:1059F00012B070BD0CA200212846FFF75DFCF6E74F
:105A00002A463146684600F0C5FD0446684600F067
:105A100025FA2046ECE700003C737472696E673E1D
:105A200000000000316B000877726F6E67206172B2
:105A300067756D656E7473000048704760000020E4
:105A400010B5242000F0B0F9040004D00E4800681E
:105A5000002802D004E0002010BD002000F04EF825
:105A6000002020700120606020460830FFF7E0FD34
:105A7000002803D0204600F08FF9ECE70020E06119
:105A80002062204610BD00007000002010B50029E3
:105A900004D0002802D00278002A01D0002010BDD6
:105AA0000830FFF7A5FD10BD10B5002802D0017821
:105AB000002901D0002010BD0830FFF7DDFD10BD2A
:105AC00010B5002801D0FFF7DDFD10BD10B500288E
:105AD00008D00278002A05D1002903D00830FFF74A
